:020000020000FC
:1000000008E00EBF0FE50DBF0E9400010E94050130
:1000100000ED0E940B0107E00E940B0100E00E942E
:100020000B010E941E010E94050100ED0E940B01C0
:1000300000E00E940B0105E50E940B0108E50E940B
:100040000B0106E10E940B010E941E010E940501A6
:1000500000ED0E940B0104E00E940B0109E10E94E7
:100060000B0100E10E940B0109E00E940B010E94BC
:100070001E010E94050100ED0E940B0100E00E949C
:100080000B010E94050101ED0E940B010E9412016B
:1000900013B10E94120123B10E94120133B10E94D8
:1000A000120143B10E94120153B10E94120163B1C7
:0C00B0000E94180173B10E941E01FFCFD6
:1002000000E001B900E200B9089504EA06BF06B7AC
:1002100007FFFDCF089503B904E806BF06B707FF3F
:10022000FDCF089504EC06BF06B707FFFDCF089584
:1002300004E806BF06B707FFFDCF089504E906BF2F
:0202400008951F
:00000001FF
