:020000020000FC
:1000000008E00EBF0FE50DBF0E940B010FEF04BB10
:1000100007E001BB00E30E9417010E940B0100E30F
:100020000E9417010E94030100E30E9417010E9431
:10003000030108E30E9417010E9403010FE00E94E0
:1000400017010E94030101E00E9417010E940B01A9
:1000500006E00E9417010E94030100E40E941701BC
:100060000E940301EEE4F2E005910E941F010E944C
:100070000301003009F0F8CF00E80E9417010E9448
:0E008000030100E00E941F010E940301FFCF58
:100200000000000008951F931CE30E9400011A954E
:10021000E1F71F9108950F931F9300E911E00E94E9
:10022000030101501040D9F71F910F91089505BBAC
:1002300091989098929A0E9400019298089505BB17
:100240009198909A929A0E940001929808951109AB
:060250000509110905007B
:00000001FF
