:020000020000FC
:1000000008E00EBF0FE50DBF0E940B0107EF04BB18
:1000100003E30E9417010E94030102E30E941701FB
:100020000E94030108E20E9417010E94030108E2F6
:100030000E9417010E9403010FE00E9417010E9415
:10004000030101E00E9417010E940B0106E00E94DB
:1000500017010E94030108E40E9433010E9403017A
:0C00600009E60E9433010E940301FFCF5B
:100200000000000008951F931CE30E9400011A954E
:10021000E1F71F9108950F931F9300E911E00E94E9
:10022000030101501040D9F71F910F910895402FFD
:10023000407F55B35F70452B45BBA898A998AA9AF3
:100240000E940001AA980E940301402F4295407F1E
:1002500055B35F70452B45BBA898A998AA9A0E94F0
:100260000001AA980895402F407F55B35F70452B39
:1002700045BBA89AA998AA9A0E940001AA980E9430
:100280000301402F4295407F55B35F70452B45BB1E
:0E029000A89AA998AA9A0E940001AA98089517
:00000001FF
